{
  "contractName": "Animal",
  "abi": [
    {
      "inputs": [
        {
          "internalType": "string",
          "name": "food",
          "type": "string"
        }
      ],
      "name": "eat",
      "outputs": [
        {
          "internalType": "string",
          "name": "",
          "type": "string"
        }
      ],
      "stateMutability": "view",
      "type": "function"
    },
    {
      "inputs": [],
      "name": "speak",
      "outputs": [
        {
          "internalType": "string",
          "name": "",
          "type": "string"
        }
      ],
      "stateMutability": "view",
      "type": "function"
    },
    {
      "inputs": [],
      "name": "sleep",
      "outputs": [
        {
          "internalType": "string",
          "name": "",
          "type": "string"
        }
      ],
      "stateMutability": "view",
      "type": "function"
    }
  ],
  "bytecode": "0x608060405234801561001057600080fd5b506103e5806100206000396000f3fe608060405234801561001057600080fd5b50600436106100415760003560e01c8063133a473e1461004657806350d8531514610064578063728d9b7414610082575b600080fd5b61004e6100b2565b60405161005b91906101fb565b60405180910390f35b61006c6100ef565b60405161007991906101fb565b60405180910390f35b61009c60048036038101906100979190610366565b61012c565b6040516100a991906101fb565b60405180910390f35b60606040518060400160405280600781526020017f5a2d7a2d7a2d7a00000000000000000000000000000000000000000000000000815250905090565b60606040518060400160405280600381526020017f2e2e2e0000000000000000000000000000000000000000000000000000000000815250905090565b60606040518060400160405280600781526020017f4e6f6d2d6e6f6d000000000000000000000000000000000000000000000000008152509050919050565b600081519050919050565b600082825260208201905092915050565b60005b838110156101a557808201518184015260208101905061018a565b60008484015250505050565b6000601f19601f8301169050919050565b60006101cd8261016b565b6101d78185610176565b93506101e7818560208601610187565b6101f0816101b1565b840191505092915050565b6000602082019050818103600083015261021581846101c2565b905092915050565b6000604051905090565b600080fd5b600080fd5b600080fd5b600080fd5b7f4e487b7100000000000000000000000000000000000000000000000000000000600052604160045260246000fd5b610273826101b1565b810181811067ffffffffffffffff821117156102925761029161023b565b5b80604052505050565b60006102a561021d565b90506102b1828261026a565b919050565b600067ffffffffffffffff8211156102d1576102d061023b565b5b6102da826101b1565b9050602081019050919050565b82818337600083830152505050565b6000610309610304846102b6565b61029b565b90508281526020810184848401111561032557610324610236565b5b6103308482856102e7565b509392505050565b600082601f83011261034d5761034c610231565b5b813561035d8482602086016102f6565b91505092915050565b60006020828403121561037c5761037b610227565b5b600082013567ffffffffffffffff81111561039a5761039961022c565b5b6103a684828501610338565b9150509291505056fea2646970667358221220430a7494af07df9211ed4dcf1d23f4839a63d429b7a5a3d2cefeb503497bd65564736f6c63430008110033",
  "immutableReferences": {},
  "source": "// SPDX-License-Identifier: UNLICENSED.\r\n\r\npragma solidity ^0.8.17;\r\n\r\ncontract HasName{\r\n    \r\n    string _name;\r\n    \r\n    constructor(string memory name){\r\n        _name=name;\r\n    }\r\n    \r\n    function getName()view public returns(string memory){\r\n        return _name;\r\n    }\r\n\r\n}\r\n\r\ncontract Animal{\r\n\r\n    function eat(string memory food) view virtual public returns(string memory){\r\n        return \"Nom-nom\";\r\n    }\r\n\r\n    function speak() view  virtual public returns(string memory){\r\n        return\"...\";\r\n    }\r\n\r\n    function sleep() view public returns(string memory){\r\n        return \"Z-z-z-z\";\r\n        \r\n    }\r\n}\r\n\r\nlibrary StringCompare{\r\n        \r\n    function compare(string memory str1, string memory str2) public pure returns (bool) {\r\n        return keccak256(abi.encodePacked(str1)) == keccak256(abi.encodePacked(str2));\r\n    }\r\n}\r\n\r\nabstract contract Herbivore is Animal, HasName{\r\n\r\n    string constant PLANT=\"plant\";\r\n\r\n    function eat(string memory food) view override onlyPlant(food) public returns(string memory){\r\n        return super.eat(food);\r\n    }\r\n\r\n    modifier onlyPlant(string memory food){\r\n        require(StringCompare.compare(food, PLANT), \"It cannot eat this\");\r\n        _;\r\n    }\r\n}\r\n\r\nabstract contract Carnivore is Animal, HasName{\r\n\r\n    string constant MEAT=\"meat\";\r\n\r\n    function eat(string memory food) view override onlyMeat(food) public returns(string memory){\r\n        return super.eat(food);\r\n    }\r\n\r\n    modifier onlyMeat(string memory food){\r\n        require(StringCompare.compare(food, MEAT), \"It cannot eat this\");\r\n        _;\r\n    }\r\n}\r\n\r\nabstract contract Omnivore is Animal, HasName{\r\n\r\n    string constant MEAT=\"meat\";\r\n    string constant PLANT=\"plant\";\r\n    string constant CHOCOLATE=\"chocolate\";\r\n\r\n    function eat(string memory food) view override omnivores(food) public returns(string memory){\r\n        return super.eat(food);\r\n    }\r\n\r\n    modifier omnivores(string memory food){\r\n        require(!StringCompare.compare(food, CHOCOLATE), \"It's not healthy for animals to eat a chocolate\");\r\n        require(StringCompare.compare(food, MEAT) || StringCompare.compare(food, PLANT), \"It cannot eat this\");\r\n        _;\r\n    }\r\n}\r\n\r\ncontract Cow is Herbivore{\r\n\r\n    constructor(string memory name) HasName(name){\r\n    }\r\n\r\n    function speak() view override public returns(string memory){\r\n        return \"Mooo\";\r\n    }\r\n}\r\n\r\ncontract Horse is Herbivore{\r\n\r\n    constructor(string memory name) HasName(name){\r\n    }\r\n\r\n    function speak() view override public returns(string memory){\r\n        return \"Igo-go\";\r\n    }\r\n}\r\n\r\ncontract Wolf is Carnivore{\r\n\r\n    constructor(string memory name) HasName(name){\r\n    }\r\n\r\n    function speak() view override public returns(string memory){\r\n        return \"Awooo\";\r\n    }\r\n\r\n}\r\n\r\ncontract Dog is Omnivore {\r\n\r\n    constructor(string memory name) HasName(name){\r\n    }\r\n\r\n    function speak() view override public returns(string memory){\r\n        return \"Wooof\";\r\n    }\r\n\r\n}\r\n\r\ncontract Farmer{\r\n\r\n    function feed(address animal, string memory food) view public returns(string memory){\r\n        return Animal(animal).eat(food);\r\n    }\r\n\r\n    function call(address animal) view public returns(string memory){\r\n        return Animal(animal).speak();\r\n    }\r\n}",
  "sourcePath": "C:\\Users\\titoi\\Documents\\Studying\\Lecture_14\\HW\\contracts\\OOP_basics_9.sol",
  "compiler": {
    "name": "solc",
    "version": "0.8.17+commit.8df45f5f.Emscripten.clang"
  },
  "schemaVersion": "3.4.11",
  "updatedAt": "2023-01-29T07:16:36.570Z",
  "devdoc": {
    "kind": "dev",
    "methods": {},
    "version": 1
  },
  "userdoc": {
    "kind": "user",
    "methods": {},
    "version": 1
  }
}