{
  "contractName": "Dog",
  "abi": [
    {
      "inputs": [
        {
          "internalType": "string",
          "name": "name",
          "type": "string"
        }
      ],
      "stateMutability": "nonpayable",
      "type": "constructor"
    },
    {
      "inputs": [
        {
          "internalType": "string",
          "name": "food",
          "type": "string"
        }
      ],
      "name": "eat",
      "outputs": [
        {
          "internalType": "string",
          "name": "",
          "type": "string"
        }
      ],
      "stateMutability": "view",
      "type": "function"
    },
    {
      "inputs": [],
      "name": "getName",
      "outputs": [
        {
          "internalType": "string",
          "name": "",
          "type": "string"
        }
      ],
      "stateMutability": "view",
      "type": "function"
    },
    {
      "inputs": [],
      "name": "sleep",
      "outputs": [
        {
          "internalType": "string",
          "name": "",
          "type": "string"
        }
      ],
      "stateMutability": "view",
      "type": "function"
    },
    {
      "inputs": [],
      "name": "speak",
      "outputs": [
        {
          "internalType": "string",
          "name": "",
          "type": "string"
        }
      ],
      "stateMutability": "view",
      "type": "function"
    }
  ],
  "bytecode": "0x60806040523480156200001157600080fd5b5060405162000f0338038062000f038339818101604052810190620000379190620001e5565b80806000908162000049919062000481565b50505062000568565b6000604051905090565b600080fd5b600080fd5b600080fd5b600080fd5b6000601f19601f8301169050919050565b7f4e487b7100000000000000000000000000000000000000000000000000000000600052604160045260246000fd5b620000bb8262000070565b810181811067ffffffffffffffff82111715620000dd57620000dc62000081565b5b80604052505050565b6000620000f262000052565b9050620001008282620000b0565b919050565b600067ffffffffffffffff82111562000123576200012262000081565b5b6200012e8262000070565b9050602081019050919050565b60005b838110156200015b5780820151818401526020810190506200013e565b60008484015250505050565b60006200017e620001788462000105565b620000e6565b9050828152602081018484840111156200019d576200019c6200006b565b5b620001aa8482856200013b565b509392505050565b600082601f830112620001ca57620001c962000066565b5b8151620001dc84826020860162000167565b91505092915050565b600060208284031215620001fe57620001fd6200005c565b5b600082015167ffffffffffffffff8111156200021f576200021e62000061565b5b6200022d84828501620001b2565b91505092915050565b600081519050919050565b7f4e487b7100000000000000000000000000000000000000000000000000000000600052602260045260246000fd5b600060028204905060018216806200028957607f821691505b6020821081036200029f576200029e62000241565b5b50919050565b60008190508160005260206000209050919050565b60006020601f8301049050919050565b600082821b905092915050565b600060088302620003097fffffffffffffffffffffffffffffffffffffffffffffffffffffffffffffffff82620002ca565b620003158683620002ca565b95508019841693508086168417925050509392505050565b6000819050919050565b6000819050919050565b6000620003626200035c62000356846200032d565b62000337565b6200032d565b9050919050565b6000819050919050565b6200037e8362000341565b620003966200038d8262000369565b848454620002d7565b825550505050565b600090565b620003ad6200039e565b620003ba81848462000373565b505050565b5b81811015620003e257620003d6600082620003a3565b600181019050620003c0565b5050565b601f8211156200043157620003fb81620002a5565b6200040684620002ba565b8101602085101562000416578190505b6200042e6200042585620002ba565b830182620003bf565b50505b505050565b600082821c905092915050565b6000620004566000198460080262000436565b1980831691505092915050565b600062000471838362000443565b9150826002028217905092915050565b6200048c8262000236565b67ffffffffffffffff811115620004a857620004a762000081565b5b620004b4825462000270565b620004c1828285620003e6565b600060209050601f831160018114620004f95760008415620004e4578287015190505b620004f0858262000463565b86555062000560565b601f1984166200050986620002a5565b60005b8281101562000533578489015182556001820191506020850194506020810190506200050c565b868310156200055357848901516200054f601f89168262000443565b8355505b6001600288020188555050505b505050505050565b61098b80620005786000396000f3fe608060405234801561001057600080fd5b506004361061004c5760003560e01c8063133a473e1461005157806317d7de7c1461006f57806350d853151461008d578063728d9b74146100ab575b600080fd5b6100596100db565b604051610066919061055d565b60405180910390f35b610077610118565b604051610084919061055d565b60405180910390f35b6100956101aa565b6040516100a2919061055d565b60405180910390f35b6100c560048036038101906100c091906106c8565b6101e7565b6040516100d2919061055d565b60405180910390f35b60606040518060400160405280600781526020017f5a2d7a2d7a2d7a00000000000000000000000000000000000000000000000000815250905090565b60606000805461012790610740565b80601f016020809104026020016040519081016040528092919081815260200182805461015390610740565b80156101a05780601f10610175576101008083540402835291602001916101a0565b820191906000526020600020905b81548152906001019060200180831161018357829003601f168201915b5050505050905090565b60606040518060400160405280600581526020017f576f6f6f66000000000000000000000000000000000000000000000000000000815250905090565b60608173__StringCompare_________________________633a96fdd7826040518060400160405280600981526020017f63686f636f6c61746500000000000000000000000000000000000000000000008152506040518363ffffffff1660e01b81526004016102589291906107bb565b602060405180830381865af4158015610275573d6000803e3d6000fd5b505050506040513d601f19601f82011682018060405250810190610299919061082a565b156102d9576040517f08c379a00000000000000000000000000000000000000000000000000000000081526004016102d0906108c9565b60405180910390fd5b73__StringCompare_________________________633a96fdd7826040518060400160405280600481526020017f6d656174000000000000000000000000000000000000000000000000000000008152506040518363ffffffff1660e01b81526004016103479291906107bb565b602060405180830381865af4158015610364573d6000803e3d6000fd5b505050506040513d601f19601f82011682018060405250810190610388919061082a565b8061043e575073__StringCompare_________________________633a96fdd7826040518060400160405280600581526020017f706c616e740000000000000000000000000000000000000000000000000000008152506040518363ffffffff1660e01b81526004016103fc9291906107bb565b602060405180830381865af4158015610419573d6000803e3d6000fd5b505050506040513d601f19601f8201168201806040525081019061043d919061082a565b5b61047d576040517f08c379a000000000000000000000000000000000000000000000000000000000815260040161047490610935565b60405180910390fd5b6104868361048e565b915050919050565b60606040518060400160405280600781526020017f4e6f6d2d6e6f6d000000000000000000000000000000000000000000000000008152509050919050565b600081519050919050565b600082825260208201905092915050565b60005b838110156105075780820151818401526020810190506104ec565b60008484015250505050565b6000601f19601f8301169050919050565b600061052f826104cd565b61053981856104d8565b93506105498185602086016104e9565b61055281610513565b840191505092915050565b600060208201905081810360008301526105778184610524565b905092915050565b6000604051905090565b600080fd5b600080fd5b600080fd5b600080fd5b7f4e487b7100000000000000000000000000000000000000000000000000000000600052604160045260246000fd5b6105d582610513565b810181811067ffffffffffffffff821117156105f4576105f361059d565b5b80604052505050565b600061060761057f565b905061061382826105cc565b919050565b600067ffffffffffffffff8211156106335761063261059d565b5b61063c82610513565b9050602081019050919050565b82818337600083830152505050565b600061066b61066684610618565b6105fd565b90508281526020810184848401111561068757610686610598565b5b610692848285610649565b509392505050565b600082601f8301126106af576106ae610593565b5b81356106bf848260208601610658565b91505092915050565b6000602082840312156106de576106dd610589565b5b600082013567ffffffffffffffff8111156106fc576106fb61058e565b5b6107088482850161069a565b91505092915050565b7f4e487b7100000000000000000000000000000000000000000000000000000000600052602260045260246000fd5b6000600282049050600182168061075857607f821691505b60208210810361076b5761076a610711565b5b50919050565b600082825260208201905092915050565b600061078d826104cd565b6107978185610771565b93506107a78185602086016104e9565b6107b081610513565b840191505092915050565b600060408201905081810360008301526107d58185610782565b905081810360208301526107e98184610782565b90509392505050565b60008115159050919050565b610807816107f2565b811461081257600080fd5b50565b600081519050610824816107fe565b92915050565b6000602082840312156108405761083f610589565b5b600061084e84828501610815565b91505092915050565b7f49742773206e6f74206865616c74687920666f7220616e696d616c7320746f2060008201527f65617420612063686f636f6c6174650000000000000000000000000000000000602082015250565b60006108b3602f836104d8565b91506108be82610857565b604082019050919050565b600060208201905081810360008301526108e2816108a6565b9050919050565b7f49742063616e6e6f742065617420746869730000000000000000000000000000600082015250565b600061091f6012836104d8565b915061092a826108e9565b602082019050919050565b6000602082019050818103600083015261094e81610912565b905091905056fea2646970667358221220fd78c37dbfc2e5584cf0e47ba85fabc4d3702ae6d14ee0ec6cc4556e3966bb1664736f6c63430008110033",
  "immutableReferences": {},
  "source": "// SPDX-License-Identifier: UNLICENSED.\r\n\r\npragma solidity ^0.8.17;\r\n\r\ncontract HasName{\r\n    \r\n    string _name;\r\n    \r\n    constructor(string memory name){\r\n        _name=name;\r\n    }\r\n    \r\n    function getName()view public returns(string memory){\r\n        return _name;\r\n    }\r\n\r\n}\r\n\r\ncontract Animal{\r\n\r\n    function eat(string memory food) view virtual public returns(string memory){\r\n        return \"Nom-nom\";\r\n    }\r\n\r\n    function speak() view  virtual public returns(string memory){\r\n        return\"...\";\r\n    }\r\n\r\n    function sleep() view public returns(string memory){\r\n        return \"Z-z-z-z\";\r\n        \r\n    }\r\n}\r\n\r\nlibrary StringCompare{\r\n        \r\n    function compare(string memory str1, string memory str2) public pure returns (bool) {\r\n        return keccak256(abi.encodePacked(str1)) == keccak256(abi.encodePacked(str2));\r\n    }\r\n}\r\n\r\nabstract contract Herbivore is Animal, HasName{\r\n\r\n    string constant PLANT=\"plant\";\r\n\r\n    function eat(string memory food) view override onlyPlant(food) public returns(string memory){\r\n        return super.eat(food);\r\n    }\r\n\r\n    modifier onlyPlant(string memory food){\r\n        require(StringCompare.compare(food, PLANT), \"It cannot eat this\");\r\n        _;\r\n    }\r\n}\r\n\r\nabstract contract Carnivore is Animal, HasName{\r\n\r\n    string constant MEAT=\"meat\";\r\n\r\n    function eat(string memory food) view override onlyMeat(food) public returns(string memory){\r\n        return super.eat(food);\r\n    }\r\n\r\n    modifier onlyMeat(string memory food){\r\n        require(StringCompare.compare(food, MEAT), \"It cannot eat this\");\r\n        _;\r\n    }\r\n}\r\n\r\nabstract contract Omnivore is Animal, HasName{\r\n\r\n    string constant MEAT=\"meat\";\r\n    string constant PLANT=\"plant\";\r\n    string constant CHOCOLATE=\"chocolate\";\r\n\r\n    function eat(string memory food) view override omnivores(food) public returns(string memory){\r\n        return super.eat(food);\r\n    }\r\n\r\n    modifier omnivores(string memory food){\r\n        require(!StringCompare.compare(food, CHOCOLATE), \"It's not healthy for animals to eat a chocolate\");\r\n        require(StringCompare.compare(food, MEAT) || StringCompare.compare(food, PLANT), \"It cannot eat this\");\r\n        _;\r\n    }\r\n}\r\n\r\ncontract Cow is Herbivore{\r\n\r\n    constructor(string memory name) HasName(name){\r\n    }\r\n\r\n    function speak() view override public returns(string memory){\r\n        return \"Mooo\";\r\n    }\r\n}\r\n\r\ncontract Horse is Herbivore{\r\n\r\n    constructor(string memory name) HasName(name){\r\n    }\r\n\r\n    function speak() view override public returns(string memory){\r\n        return \"Igo-go\";\r\n    }\r\n}\r\n\r\ncontract Wolf is Carnivore{\r\n\r\n    constructor(string memory name) HasName(name){\r\n    }\r\n\r\n    function speak() view override public returns(string memory){\r\n        return \"Awooo\";\r\n    }\r\n\r\n}\r\n\r\ncontract Dog is Omnivore {\r\n\r\n    constructor(string memory name) HasName(name){\r\n    }\r\n\r\n    function speak() view override public returns(string memory){\r\n        return \"Wooof\";\r\n    }\r\n\r\n}\r\n\r\ncontract Farmer{\r\n\r\n    function feed(address animal, string memory food) view public returns(string memory){\r\n        return Animal(animal).eat(food);\r\n    }\r\n\r\n    function call(address animal) view public returns(string memory){\r\n        return Animal(animal).speak();\r\n    }\r\n}",
  "sourcePath": "C:\\Users\\titoi\\Documents\\Studying\\Lecture_14\\HW\\contracts\\OOP_basics_9.sol",
  "compiler": {
    "name": "solc",
    "version": "0.8.17+commit.8df45f5f.Emscripten.clang"
  },
  "schemaVersion": "3.4.11",
  "updatedAt": "2023-01-29T07:16:36.585Z",
  "devdoc": {
    "kind": "dev",
    "methods": {},
    "version": 1
  },
  "userdoc": {
    "kind": "user",
    "methods": {},
    "version": 1
  }
}