{
  "contractName": "HasName",
  "abi": [
    {
      "inputs": [
        {
          "internalType": "string",
          "name": "name",
          "type": "string"
        }
      ],
      "stateMutability": "nonpayable",
      "type": "constructor"
    },
    {
      "inputs": [],
      "name": "getName",
      "outputs": [
        {
          "internalType": "string",
          "name": "",
          "type": "string"
        }
      ],
      "stateMutability": "view",
      "type": "function"
    }
  ],
  "bytecode": "0x608060405234801561001057600080fd5b50604051610730380380610730833981810160405281019061003291906101bd565b80600090816100419190610427565b50506104f9565b6000604051905090565b600080fd5b600080fd5b600080fd5b600080fd5b6000601f19601f8301169050919050565b7f4e487b7100000000000000000000000000000000000000000000000000000000600052604160045260246000fd5b6100af82610066565b810181811067ffffffffffffffff821117156100ce576100cd610077565b5b80604052505050565b60006100e1610048565b90506100ed82826100a6565b919050565b600067ffffffffffffffff82111561010d5761010c610077565b5b61011682610066565b9050602081019050919050565b60005b83811015610141578082015181840152602081019050610126565b60008484015250505050565b600061016061015b846100f2565b6100d7565b90508281526020810184848401111561017c5761017b610061565b5b610187848285610123565b509392505050565b600082601f8301126101a4576101a361005c565b5b81516101b484826020860161014d565b91505092915050565b6000602082840312156101d3576101d2610052565b5b600082015167ffffffffffffffff8111156101f1576101f0610057565b5b6101fd8482850161018f565b91505092915050565b600081519050919050565b7f4e487b7100000000000000000000000000000000000000000000000000000000600052602260045260246000fd5b6000600282049050600182168061025857607f821691505b60208210810361026b5761026a610211565b5b50919050565b60008190508160005260206000209050919050565b60006020601f8301049050919050565b600082821b905092915050565b6000600883026102d37fffffffffffffffffffffffffffffffffffffffffffffffffffffffffffffffff82610296565b6102dd8683610296565b95508019841693508086168417925050509392505050565b6000819050919050565b6000819050919050565b600061032461031f61031a846102f5565b6102ff565b6102f5565b9050919050565b6000819050919050565b61033e83610309565b61035261034a8261032b565b8484546102a3565b825550505050565b600090565b61036761035a565b610372818484610335565b505050565b5b818110156103965761038b60008261035f565b600181019050610378565b5050565b601f8211156103db576103ac81610271565b6103b584610286565b810160208510156103c4578190505b6103d86103d085610286565b830182610377565b50505b505050565b600082821c905092915050565b60006103fe600019846008026103e0565b1980831691505092915050565b600061041783836103ed565b9150826002028217905092915050565b61043082610206565b67ffffffffffffffff81111561044957610448610077565b5b6104538254610240565b61045e82828561039a565b600060209050601f831160018114610491576000841561047f578287015190505b610489858261040b565b8655506104f1565b601f19841661049f86610271565b60005b828110156104c7578489015182556001820191506020850194506020810190506104a2565b868310156104e457848901516104e0601f8916826103ed565b8355505b6001600288020188555050505b505050505050565b610228806105086000396000f3fe608060405234801561001057600080fd5b506004361061002b5760003560e01c806317d7de7c14610030575b600080fd5b61003861004e565b6040516100459190610170565b60405180910390f35b60606000805461005d906101c1565b80601f0160208091040260200160405190810160405280929190818152602001828054610089906101c1565b80156100d65780601f106100ab576101008083540402835291602001916100d6565b820191906000526020600020905b8154815290600101906020018083116100b957829003601f168201915b5050505050905090565b600081519050919050565b600082825260208201905092915050565b60005b8381101561011a5780820151818401526020810190506100ff565b60008484015250505050565b6000601f19601f8301169050919050565b6000610142826100e0565b61014c81856100eb565b935061015c8185602086016100fc565b61016581610126565b840191505092915050565b6000602082019050818103600083015261018a8184610137565b905092915050565b7f4e487b7100000000000000000000000000000000000000000000000000000000600052602260045260246000fd5b600060028204905060018216806101d957607f821691505b6020821081036101ec576101eb610192565b5b5091905056fea2646970667358221220f8e085434e46dbeeff96b0fb49ae53938aec53aa70cef6fd1300ecce9285613e64736f6c63430008110033",
  "immutableReferences": {},
  "source": "// SPDX-License-Identifier: UNLICENSED.\r\n\r\npragma solidity ^0.8.17;\r\n\r\ncontract HasName{\r\n    \r\n    string _name;\r\n    \r\n    constructor(string memory name){\r\n        _name=name;\r\n    }\r\n    \r\n    function getName()view public returns(string memory){\r\n        return _name;\r\n    }\r\n\r\n}\r\n\r\ncontract Animal{\r\n\r\n    function eat(string memory food) view virtual public returns(string memory){\r\n        return \"Nom-nom\";\r\n    }\r\n\r\n    function speak() view  virtual public returns(string memory){\r\n        return\"...\";\r\n    }\r\n\r\n    function sleep() view public returns(string memory){\r\n        return \"Z-z-z-z\";\r\n        \r\n    }\r\n}\r\n\r\nlibrary StringCompare{\r\n        \r\n    function compare(string memory str1, string memory str2) public pure returns (bool) {\r\n        return keccak256(abi.encodePacked(str1)) == keccak256(abi.encodePacked(str2));\r\n    }\r\n}\r\n\r\nabstract contract Herbivore is Animal, HasName{\r\n\r\n    string constant PLANT=\"plant\";\r\n\r\n    function eat(string memory food) view override onlyPlant(food) public returns(string memory){\r\n        return super.eat(food);\r\n    }\r\n\r\n    modifier onlyPlant(string memory food){\r\n        require(StringCompare.compare(food, PLANT), \"It cannot eat this\");\r\n        _;\r\n    }\r\n}\r\n\r\nabstract contract Carnivore is Animal, HasName{\r\n\r\n    string constant MEAT=\"meat\";\r\n\r\n    function eat(string memory food) view override onlyMeat(food) public returns(string memory){\r\n        return super.eat(food);\r\n    }\r\n\r\n    modifier onlyMeat(string memory food){\r\n        require(StringCompare.compare(food, MEAT), \"It cannot eat this\");\r\n        _;\r\n    }\r\n}\r\n\r\nabstract contract Omnivore is Animal, HasName{\r\n\r\n    string constant MEAT=\"meat\";\r\n    string constant PLANT=\"plant\";\r\n    string constant CHOCOLATE=\"chocolate\";\r\n\r\n    function eat(string memory food) view override omnivores(food) public returns(string memory){\r\n        return super.eat(food);\r\n    }\r\n\r\n    modifier omnivores(string memory food){\r\n        require(!StringCompare.compare(food, CHOCOLATE), \"It's not healthy for animals to eat a chocolate\");\r\n        require(StringCompare.compare(food, MEAT) || StringCompare.compare(food, PLANT), \"It cannot eat this\");\r\n        _;\r\n    }\r\n}\r\n\r\ncontract Cow is Herbivore{\r\n\r\n    constructor(string memory name) HasName(name){\r\n    }\r\n\r\n    function speak() view override public returns(string memory){\r\n        return \"Mooo\";\r\n    }\r\n}\r\n\r\ncontract Horse is Herbivore{\r\n\r\n    constructor(string memory name) HasName(name){\r\n    }\r\n\r\n    function speak() view override public returns(string memory){\r\n        return \"Igo-go\";\r\n    }\r\n}\r\n\r\ncontract Wolf is Carnivore{\r\n\r\n    constructor(string memory name) HasName(name){\r\n    }\r\n\r\n    function speak() view override public returns(string memory){\r\n        return \"Awooo\";\r\n    }\r\n\r\n}\r\n\r\ncontract Dog is Omnivore {\r\n\r\n    constructor(string memory name) HasName(name){\r\n    }\r\n\r\n    function speak() view override public returns(string memory){\r\n        return \"Wooof\";\r\n    }\r\n\r\n}\r\n\r\ncontract Farmer{\r\n\r\n    function feed(address animal, string memory food) view public returns(string memory){\r\n        return Animal(animal).eat(food);\r\n    }\r\n\r\n    function call(address animal) view public returns(string memory){\r\n        return Animal(animal).speak();\r\n    }\r\n}",
  "sourcePath": "C:\\Users\\titoi\\Documents\\Studying\\Lecture_14\\HW\\contracts\\OOP_basics_9.sol",
  "compiler": {
    "name": "solc",
    "version": "0.8.17+commit.8df45f5f.Emscripten.clang"
  },
  "schemaVersion": "3.4.11",
  "updatedAt": "2023-01-29T07:16:36.594Z",
  "devdoc": {
    "kind": "dev",
    "methods": {},
    "version": 1
  },
  "userdoc": {
    "kind": "user",
    "methods": {},
    "version": 1
  }
}